:020000040800F2
:100000002808002029040008250400082504000809
:10001000250400082504000825040008000000004D
:10002000000000000000000000000000250400089F
:10003000250400080000000025040008250400082D
:1000400025040008250400082504000825040008EC
:1000500025040008250400082504000825040008DC
:1000600025040008250400082504000825040008CC
:1000700025040008250400082504000825040008BC
:1000800025040008250400082504000825040008AC
:10009000250400082504000825040008250400089C
:1000A000250400082504000825040008250400088C
:1000B000250400082504000825040008250400087C
:1000C000250400082504000825040008250400086C
:1000D000250400082504000825040008250400085C
:1000E000250400082504000825040008250400084C
:1000F000250400082504000825040008250400083C
:10010000250400082504000825040008250400082B
:10011000250400082504000825040008250400081B
:10012000250400082504000825040008250400080B
:1001300025040008250400082504000825040008FB
:1001400025040008250400082504000825040008EB
:1001500025040008250400082504000825040008DB
:1001600025040008250400082504000825040008CB
:1001700025040008250400082504000825040008BB
:1001800025040008250400082504000825040008AB
:10019000250400082504000825040008250400089B
:1001A00025040008250400082504000808B5454B6F
:1001B000984208D10120014600F048FB01200021AF
:1001C00000F044FB08BD404B984208D102200121B9
:1001D00000F03CFB0220002100F038FB08BD3B4B47
:1001E000984208D10420012100F030FB04200021B6
:1001F00000F02CFB08BD364B984208D108200121A5
:1002000000F024FB0820002100F020FB08BD314B4A
:10021000984208D11020012100F018FB1020002185
:1002200000F014FB08BD2C4B984208D1202001217E
:1002300000F00CFB2020002100F008FB08BD274B3C
:10024000984208D14020012100F000FB402000210D
:1002500000F0FCFA08BD224B984208D18020012111
:1002600000F0F4FA8020002100F0F0FA08BD1D4BE8
:1002700098420AD14FF48070012100F0E7FA4FF460
:100280008070002100F0E2FA08BD174B98420AD1B5
:100290004FF40070012100F0D9FA4FF400700021F2
:1002A00000F0D4FA08BD114B984209D14FF4806098
:1002B000012100F0CBFA4FF48060002100F0C6FA73
:1002C00008BD00BF000002400004024000080240D8
:1002D000000C0240001002400014024000180240CE
:1002E000001C02400020024000240240002802407E
:1002F000F0B500220126032706FA02F30C681C4021
:100300009C4237D10368540007FA04F5ED432B40B3
:100310000360036891F804E00EFA04FE4EEA03035A
:1003200003600B79013BDBB2012B16D883681D40BB
:10033000856085684B79A3402B43836043681FFA2F
:1003400082FE06FA0EF523EA0503436045688B79C1
:1003500003FA0EF39BB22B434360C36895B26D0062
:1003600007FA05F523EA0503C360C568CB79A34006
:100370002B43C3600132102ABED1F0BD4FF6FF738C
:1003800003600023037143718371C371704700BF21
:1003900082B04FF480330193019B0B430193019B87
:1003A000C361C161019BC361C3690193C3690193C7
:1003B00002B070470369194214BF01200020704742
:1003C000006980B2704700BF4369194214BF012021
:1003D00000207047406980B2704700BF01837047BA
:1003E000418370470AB1018370474183704700BF62
:1003F00041617047436959404161704710B401F051
:1004000007039B00C90800EB8100046A0F21994093
:1004100024EA01010162016A9A40114301625DF818
:10042000044B7047FEE700BF08B5124B124A9A42D0
:100430000DD2101D0333181A20F0030004300F4BA7
:10044000184453F8041B42F8041B8342F9D10C48AA
:100450000C494FF000028842B8BF40F8042BFADB89
:10046000DFF82400016841F47001016000F092FBA4
:1004700008BD00BF2400002000000020F40B00088D
:10048000240000202400002088ED00E00E4B1A68B4
:1004900042F001021A60002199601A6822F0A85205
:1004A00022F410221A60094A5A60094AC3F88420CB
:1004B00002F18062C3F888201A6822F480221A6050
:1004C000D960C3F88C107047003802401030002407
:1004D00000300020024B00221A701870704700BFD5
:1004E00002380240034A136823F0F80343EAC000CD
:1004F0001060704700380240014B1860704700BF21
:1005000000004742084B00221A701A70012802D0DE
:10051000042804D070470122034B1A70704705224B
:10052000014B1A70704700BF70380240014B1860D1
:10053000704700BF800E474210B4019C40EA04603F
:10054000014341EA82125B08013B42EA0340024B4D
:1005500058605DF8044B704700380240014B18604A
:10056000704700BF60004742090741EA8010024B14
:10057000C3F88400704700BF00380240014B186088
:10058000704700BF68004742120742EA016141EA32
:100590008010024BC3F88800704700BF003802404B
:1005A000014B1860704700BF70004742014B186054
:1005B000704700BF4C004742034A936823F0EC6346
:1005C000194308439060704700380240034A93681B
:1005D00023F0784319430843906070470038024085
:1005E000034A936823F0030318439060704700BFE9
:1005F00000380240024B986800F00C00704700BFC2
:1006000000380240034A936823F0F00318439060D7
:10061000704700BF00380240034A936823F4E05358
:1006200018439060704700BF00380240034A936847
:1006300023F4604343EAC0009060704700380240F2
:1006400010B4244B9B6803F00C03042B05D0082B3B
:1006500006D00BBB204B036020E0204B03601DE065
:100660001C4B5A685B6803F03F0312F4800F194A71
:100670005268C2F3881214BF18491749B1FBF3F34B
:1006800003FB02F2134B5B68C3F3014301335B00CE
:10069000B2FBF3F3036001E00F4B03600D4A936874
:1006A000C3F303130E49CC5CE4B20368E340436038
:1006B0009468C4F382240C5DE4B223FA04F48460E9
:1006C0009268C2F342328A5CD2B2D340C3605DF812
:1006D000044B7047003802400024F40000127A00F6
:1006E0000000002000F44073B3F5407F09D10849B1
:1006F0008B6823F4F81320F0704222F44072134305
:100700008B60034A136FC0F30B00184310677047E8
:1007100000380240014B1860704700BF3C0E474252
:10072000014B1860704700BF400E4742014B1860F4
:10073000704700BF5C014742044AD2F88C3023F076
:100740001F0301380343C2F88C3070470038024061
:10075000054AD2F88C3023F4F853013843EA0023D9
:10076000C2F88C30704700BF00380240044AD2F80B
:100770008C3023F440131843C2F88C00704700BF3C
:1007800000380240044AD2F88C3023F44003184366
:10079000C2F88C00704700BF00380240044AD2F80B
:1007A0008C3023F440331843C2F88C00704700BFEC
:1007B00000380240014B1860704700BFE01147420B
:1007C00021B1054A136B184310637047024A136B3B
:1007D00023EA0000106370470038024021B1054A47
:1007E000536B184350637047024A536B23EA00006F
:1007F000506370470038024021B1054A936B18439B
:1008000090637047024A936B23EA0000906370473D
:100810000038024021B1054A136C18431064704738
:10082000024A136C23EA000010647047003802404B
:1008300021B1054A536C184350647047024A536C07
:1008400023EA0000506470470038024021B1054A95
:100850001369184310617047024A136923EA0000C4
:10086000106170470038024021B1054A53691843AE
:1008700050617047024A536923EA00005061704793
:100880000038024021B1054A9369184390617047CE
:10089000024A936923EA00009061704700380240E1
:1008A00021B1054A136A184310627047024A136A5D
:1008B00023EA0000106270470038024021B1054A67
:1008C000536A184350627047024A536A23EA000091
:1008D000506270470038024021B1054A136D184339
:1008E00010657047024A136D23EA000010657047D7
:1008F0000038024021B1054A536D184350657047D6
:10090000024A536D23EA00005065704700380240E8
:1009100021B1054A936D184390657047024A936D63
:1009200023EA0000906570470038024021B1054A73
:10093000136E184310667047024A136E23EA0000D4
:10094000106670470038024021B1054A536E1843C3
:1009500050667047024A536E23EA000050667047A3
:100960000038024021B1054B1A78104318707047C7
:10097000024A137823EA0000107070470D380240D5
:100980004309012B02D1074B1A6804E0022B054BE7
:100990000CBF1A6F5A6F00F01F0322FA03F000F029
:1009A000010070470038024010B582B00023019367
:1009B00031242046FFF7E4FF019B01330193019BA3
:1009C000B3F5A04F01D00028F3D03120FFF7D8FFB6
:1009D000003018BF012002B010BD00BF024A536FA3
:1009E00043F080735367704700380240034BDB6865
:1009F000184214BF01200020704700BF0038024099
:100A0000014B1870704700BF0E38024082B0384A60
:100A1000D2F8883043F47003C2F88830354B1A6836
:100A200042F001021A60002199601A6822F0847273
:100A300022F480321A60304A5A601A6822F4802206
:100A40001A60D960009101911A6842F480321A60EC
:100A50001A46136803F400330193009B013300939B
:100A6000019B1BB9009BB3F5A04FF2D1214B1B6832
:100A700013F4003F14BF012300230193019B012BBA
:100A800030D11C4B1A6C42F080521A641B490A6820
:100A900042F440420A609A689A609A689A609A683A
:100AA00042F480529A60164A5A601A6842F0807284
:100AB0001A601A46136813F0007FFBD040F20272EE
:100AC000104B1A60A3F580639A6822F003029A60C3
:100AD0009A6842F002029A601A46936803F00C0387
:100AE000082BFAD14FF00062014B9A6002B07047B8
:100AF00000ED00E00038024010300024007000409B
:100B000008544107003C02401E4B9B6803F00C0355
:100B1000042B06D0082B08D023BB1B4A1B4B1A60A2
:100B200023E01B4A194B1A601FE0164B5A685B689A
:100B300003F03F0312F4800F124A5268C2F3881286
:100B400014BF13491049B1FBF3F303FB02F20D4B41
:100B50005B68C3F3014301335B00B2FBF3F30B4A61
:100B6000136002E0084A094B1A60064B9B68C3F306
:100B70000313064A13441979C9B21368CB401360B2
:100B8000704700BF003802400024F400100000202D
:100B900000127A0030B585B0FFF738FF012001461A
:100BA000FFF70EFE2023029300238DF80E30012262
:100BB0008DF80C208DF80F3003238DF80D300B4885
:100BC00002A9FFF795FB094D094C28462021FFF7A4
:100BD00011FC00230193019BA342F6DC019B01332E
:100BE0000193019BA342F9DDEFE700BF0000024043
:040BF0001FA107003A
:100BF40000000000010203040102030406070809BF
:100C040000BD010500000000000000000102030413
:040C140006070809BE
:0400000508000000EF
:00000001FF
